MPLINK 4.35, Linker
Linker Map File - Created Thu Jan 10 18:31:40 2013

                                 Section Info
                  Section       Type    Address   Location Size(Bytes)
                ---------  ---------  ---------  ---------  ---------
               _entry_scn       code   0x000000    program   0x000006
                   .cinit    romdata   0x000006    program   0x000002
         .code_nixie_v8.o       code   0x000008    program   0x000b54
               _cinit_scn       code   0x000b5c    program   0x00009e
         .code_i2c_writ.o       code   0x000bfa    program   0x000072
           .code_t0read.o       code   0x000c6c    program   0x00003e
          .code_t0write.o       code   0x000caa    program   0x000038
           .code_t0open.o       code   0x000ce2    program   0x000038
         .code_i2c_open.o       code   0x000d1a    program   0x000036
             D10KTCYXCODE       code   0x000d50    program   0x00002e
      .romdata_nixie_v8.o    romdata   0x000d7e    program   0x000028
                    .code       code   0x000da6    program   0x000020
             _startup_scn       code   0x000dc6    program   0x00001c
             D100TCYXCODE       code   0x000de2    program   0x00001c
         .code_i2c_read.o       code   0x000dfe    program   0x00001a
         .code_i2c_idle.o       code   0x000e18    program   0x00000e
           .code___init.o       code   0x000e26    program   0x000002
      .romdata_i2c_writ.o    romdata   0x000e28    program   0x000000
        .romdata___init.o    romdata   0x000e28    program   0x000000
      .idata_i2c_idle.o_i    romdata   0x000e28    program   0x000000
      .romdata_i2c_idle.o    romdata   0x000e28    program   0x000000
       .idata_t0write.o_i    romdata   0x000e28    program   0x000000
       .romdata_t0write.o    romdata   0x000e28    program   0x000000
        .idata___init.o_i    romdata   0x000e28    program   0x000000
      .idata_i2c_writ.o_i    romdata   0x000e28    program   0x000000
        .romdata_t0read.o    romdata   0x000e28    program   0x000000
        .idata_t0read.o_i    romdata   0x000e28    program   0x000000
      .romdata_i2c_read.o    romdata   0x000e28    program   0x000000
      .idata_i2c_read.o_i    romdata   0x000e28    program   0x000000
        .romdata_t0open.o    romdata   0x000e28    program   0x000000
        .idata_t0open.o_i    romdata   0x000e28    program   0x000000
      .romdata_i2c_open.o    romdata   0x000e28    program   0x000000
      .idata_i2c_open.o_i    romdata   0x000e28    program   0x000000
      .idata_nixie_v8.o_i    romdata   0x000e28    program   0x000000
            .code_c018i.o       code   0x000e28    program   0x000000
         .romdata_c018i.o    romdata   0x000e28    program   0x000000
         .idata_c018i.o_i    romdata   0x000e28    program   0x000000
                MATH_DATA      udata   0x000000       data   0x000002
                 .tmpdata      udata   0x000002       data   0x000002
                DELAYDAT2      udata   0x000004       data   0x000001
                DELAYDAT1      udata   0x000005       data   0x000001
           .udata_c018i.o      udata   0x000080       data   0x00000a
          .idata___init.o      idata   0x00008a       data   0x000000
          .udata___init.o      udata   0x00008a       data   0x000000
         .idata_t0write.o      idata   0x00008a       data   0x000000
         .udata_t0write.o      udata   0x00008a       data   0x000000
        .idata_i2c_idle.o      idata   0x00008a       data   0x000000
        .udata_i2c_idle.o      udata   0x00008a       data   0x000000
        .idata_i2c_writ.o      idata   0x00008a       data   0x000000
        .udata_i2c_writ.o      udata   0x00008a       data   0x000000
          .idata_t0read.o      idata   0x00008a       data   0x000000
          .udata_t0read.o      udata   0x00008a       data   0x000000
        .idata_i2c_read.o      idata   0x00008a       data   0x000000
        .udata_i2c_read.o      udata   0x00008a       data   0x000000
          .idata_t0open.o      idata   0x00008a       data   0x000000
          .udata_t0open.o      udata   0x00008a       data   0x000000
        .idata_i2c_open.o      idata   0x00008a       data   0x000000
        .udata_i2c_open.o      udata   0x00008a       data   0x000000
        .idata_nixie_v8.o      idata   0x00008a       data   0x000000
        .udata_nixie_v8.o      udata   0x00008a       data   0x000000
           .idata_c018i.o      idata   0x00008a       data   0x000000
                   .stack      udata   0x000e00       data   0x000100
            SFR_UNBANKED0      udata   0x000f80       data   0x000080



                              Program Memory Usage 
                               Start         End      
                           ---------   ---------      
                            0x000000    0x000e27      
            3624 out of 66584 program addresses used, program memory utilization is 5%



                              Symbols - Sorted by Name
                     Name    Address   Location    Storage File                     
                ---------  ---------  ---------  --------- ---------                
             BlankDisplay   0x000134    program     extern P:\Nixie\Design_Files\nixie_v8.c
        Clear_Tic_Counter   0x0004fa    program     extern P:\Nixie\Design_Files\nixie_v8.c
            CompareOldNew   0x000338    program     extern P:\Nixie\Design_Files\nixie_v8.c
                   D100_1   0x000df0    program     static C:\MCC18\src\traditional\delays\d100tcyx.asm
                    D100x   0x000dee    program     static C:\MCC18\src\traditional\delays\d100tcyx.asm
                   D10K_1   0x000d5c    program     static C:\MCC18\src\traditional\delays\d10ktcyx.asm
                    D10Kl   0x000d68    program     static C:\MCC18\src\traditional\delays\d10ktcyx.asm
                    D10Kx   0x000d5a    program     static C:\MCC18\src\traditional\delays\d10ktcyx.asm
             Delay100TCYx   0x000de2    program     extern C:\MCC18\src\traditional\delays\d100tcyx.asm
             Delay10KTCYx   0x000d50    program     extern C:\MCC18\src\traditional\delays\d10ktcyx.asm
                  IdleI2C   0x000e18    program     extern C:\MCC18\src\pmc_common\i2c\i2c_idle.c
                  OpenI2C   0x000d1a    program     extern C:\MCC18\src\pmc_common\i2c\i2c_open.c
               OpenTimer0   0x000ce2    program     extern C:\MCC18\src\pmc_common\Timers\t0open.c
            PCA9555_Write   0x000146    program     extern P:\Nixie\Design_Files\nixie_v8.c
             PCF8593_Read   0x0001da    program     extern P:\Nixie\Design_Files\nixie_v8.c
            PCF8593_Write   0x000196    program     extern P:\Nixie\Design_Files\nixie_v8.c
                  ReadI2C   0x000dfe    program     extern C:\MCC18\src\pmc_common\i2c\i2c_read.c
                 ReadTime   0x00027c    program     extern P:\Nixie\Design_Files\nixie_v8.c
               ReadTimer0   0x000c6c    program     extern C:\MCC18\src\pmc_common\Timers\t0read.c
         Read_Tic_Counter   0x0004f2    program     extern P:\Nixie\Design_Files\nixie_v8.c
          ScrollTheDigits   0x0002dc    program     extern P:\Nixie\Design_Files\nixie_v8.c
                  SetTime   0x0002ac    program     extern P:\Nixie\Design_Files\nixie_v8.c
             SetupPCA9555   0x000042    program     extern P:\Nixie\Design_Files\nixie_v8.c
             SetupPCF8593   0x000088    program     extern P:\Nixie\Design_Files\nixie_v8.c
         SetupPICHardware   0x000008    program     extern P:\Nixie\Design_Files\nixie_v8.c
             UpdateDigits   0x0003d8    program     extern P:\Nixie\Design_Files\nixie_v8.c
               UpdateTime   0x000380    program     extern P:\Nixie\Design_Files\nixie_v8.c
        Update_MSF_Record   0x00050a    program     extern P:\Nixie\Design_Files\nixie_v8.c
                 WriteI2C   0x000bfa    program     extern C:\MCC18\src\pmc_common\i2c\i2c_writ.c
              WriteTimer0   0x000caa    program     extern C:\MCC18\src\pmc_common\Timers\t0write.c
       _D100TCYXCODE_0008   0x000dea    program     static C:\MCC18\src\traditional\delays\d100tcyx.asm
       _D100TCYXCODE_0012   0x000df4    program     static C:\MCC18\src\traditional\delays\d100tcyx.asm
       _D100TCYXCODE_0018   0x000dfa    program     static C:\MCC18\src\traditional\delays\d100tcyx.asm
       _D10KTCYXCODE_0010   0x000d60    program     static C:\MCC18\src\traditional\delays\d10ktcyx.asm
       _D10KTCYXCODE_001C   0x000d6c    program     static C:\MCC18\src\traditional\delays\d10ktcyx.asm
       ___case_0_lbl00045   0x0005ac    program     static                          
       ___case_1_lbl00058   0x0006f4    program     static                          
       ___case_2_lbl00074   0x000880    program     static                          
       ___case_3_lbl00092   0x000ab8    program     static                          
      ___default_lbl00093   0x000ac4    program     static                          
         ___else_lbl00057   0x000680    program     static                          
         ___else_lbl00070   0x0007b6    program     static                          
         ___else_lbl00088   0x000a0e    program     static                          
         ___else_lbl00096   0x000ac8    program     static                          
           ___if_lbl00049   0x000608    program     static                          
           ___if_lbl00054   0x00066c    program     static                          
           ___if_lbl00055   0x0006f2    program     static                          
           ___if_lbl00056   0x0006f2    program     static                          
           ___if_lbl00063   0x000760    program     static                          
           ___if_lbl00068   0x0007e0    program     static                          
           ___if_lbl00069   0x0007e0    program     static                          
           ___if_lbl00073   0x00087e    program     static                          
           ___if_lbl00079   0x0008ea    program     static                          
           ___if_lbl00082   0x00092e    program     static                          
           ___if_lbl00087   0x000a18    program     static                          
           ___if_lbl00091   0x000ab6    program     static                          
           ___if_lbl00094   0x000b3a    program     static                          
           ___if_lbl00095   0x000b46    program     static                          
       ___return_lbl00000   0x000004    program     static                          
       ___return_lbl00001   0x000de0    program     static                          
       ___return_lbl00002   0x000bf8    program     static                          
       ___return_lbl00003   0x00013e    program     static                          
       ___return_lbl00040   0x000514    program     static                          
       ___return_lbl00041   0x000b48    program     static                          
   ___switchexit_lbl00044   0x000ac6    program     static                          
        ___while_lbl00042   0x000588    program     static                          
        ___while_lbl00043   0x000b48    program     static                          
        ___while_lbl00046   0x0005c2    program     static                          
        ___while_lbl00047   0x0005ee    program     static                          
        ___while_lbl00050   0x000618    program     static                          
        ___while_lbl00051   0x000652    program     static                          
        ___while_lbl00059   0x00070a    program     static                          
        ___while_lbl00060   0x000744    program     static                          
        ___while_lbl00064   0x000770    program     static                          
        ___while_lbl00065   0x0007aa    program     static                          
        ___while_lbl00071   0x0007e0    program     static                          
        ___while_lbl00072   0x000810    program     static                          
        ___while_lbl00075   0x000896    program     static                          
        ___while_lbl00076   0x0008d0    program     static                          
        ___while_lbl00080   0x0008fa    program     static                          
        ___while_lbl00081   0x00092a    program     static                          
        ___while_lbl00083   0x00093c    program     static                          
        ___while_lbl00084   0x00096c    program     static                          
        ___while_lbl00085   0x000994    program     static                          
        ___while_lbl00086   0x0009c4    program     static                          
        ___while_lbl00089   0x000a18    program     static                          
        ___while_lbl00090   0x000a48    program     static                          
                   __init   0x000e26    program     extern C:\MCC18\src\traditional\stdclib\__init.c
               __tmplbl_0   0x0005de    program     static                          
               __tmplbl_1   0x0005c8    program     static                          
              __tmplbl_10   0x000774    program     static                          
              __tmplbl_11   0x0008b6    program     static                          
              __tmplbl_12   0x0008a0    program     static                          
              __tmplbl_13   0x00089a    program     static                          
               __tmplbl_2   0x000638    program     static                          
               __tmplbl_3   0x000622    program     static                          
               __tmplbl_4   0x00061c    program     static                          
               __tmplbl_5   0x00072a    program     static                          
               __tmplbl_6   0x000714    program     static                          
               __tmplbl_7   0x00070e    program     static                          
               __tmplbl_8   0x000790    program     static                          
               __tmplbl_9   0x00077a    program     static                          
            __zero_memory   0x000da6    program     extern C:\MCC18\src\traditional\proc\p18F2620.asm
                _do_cinit   0x000b5c    program     extern C:\MCC18\src\traditional\startup\c018i.c
                   _entry   0x000000    program     extern C:\MCC18\src\traditional\startup\c018i.c
                 _startup   0x000dc6    program     extern C:\MCC18\src\traditional\startup\c018i.c
                compare_l   0x000dbc    program     static C:\MCC18\src\traditional\proc\p18F2620.asm
                copy_loop   0x000bce    program     static                          
            copy_one_byte   0x000bd4    program     static                          
                     done   0x000bf8    program     static                          
             done_copying   0x000be2    program     static                          
                    hrsx1   0x000d9c    program     extern P:\Nixie\Design_Files\nixie_v8.c
                   hrsx10   0x000d92    program     extern P:\Nixie\Design_Files\nixie_v8.c
                     loop   0x000dd6    program     static                          
                   loop_h   0x000db4    program     static C:\MCC18\src\traditional\proc\p18F2620.asm
                   loop_l   0x000dbe    program     static C:\MCC18\src\traditional\proc\p18F2620.asm
                     main   0x00051c    program     extern P:\Nixie\Design_Files\nixie_v8.c
                   minsx1   0x000d88    program     extern P:\Nixie\Design_Files\nixie_v8.c
                  minsx10   0x000d7e    program     extern P:\Nixie\Design_Files\nixie_v8.c
                     test   0x000b76    program     static                          
               zero_block   0x000db4    program     static C:\MCC18\src\traditional\proc\p18F2620.asm
                   ADCON0   0x000fc2       data     extern C:\MCC18\src\traditional\proc\p18F2620.asm
               ADCON0bits   0x000fc2       data     extern C:\MCC18\src\traditional\proc\p18F2620.asm
                   ADCON1   0x000fc1       data     extern C:\MCC18\src\traditional\proc\p18F2620.asm
               ADCON1bits   0x000fc1       data     extern C:\MCC18\src\traditional\proc\p18F2620.asm
                   ADCON2   0x000fc0       data     extern C:\MCC18\src\traditional\proc\p18F2620.asm
               ADCON2bits   0x000fc0       data     extern C:\MCC18\src\traditional\proc\p18F2620.asm
                    ADRES   0x000fc3       data     extern C:\MCC18\src\traditional\proc\p18F2620.asm
                   ADRESH   0x000fc4       data     extern C:\MCC18\src\traditional\proc\p18F2620.asm
                   ADRESL   0x000fc3       data     extern C:\MCC18\src\traditional\proc\p18F2620.asm
                  BAUDCON   0x000fb8       data     extern C:\MCC18\src\traditional\proc\p18F2620.asm
              BAUDCONbits   0x000fb8       data     extern C:\MCC18\src\traditional\proc\p18F2620.asm
                  BAUDCTL   0x000fb8       data     extern C:\MCC18\src\traditional\proc\p18F2620.asm
              BAUDCTLbits   0x000fb8       data     extern C:\MCC18\src\traditional\proc\p18F2620.asm
                      BSR   0x000fe0       data     extern C:\MCC18\src\traditional\proc\p18F2620.asm
                  CCP1CON   0x000fbd       data     extern C:\MCC18\src\traditional\proc\p18F2620.asm
              CCP1CONbits   0x000fbd       data     extern C:\MCC18\src\traditional\proc\p18F2620.asm
                  CCP2CON   0x000fba       data     extern C:\MCC18\src\traditional\proc\p18F2620.asm
              CCP2CONbits   0x000fba       data     extern C:\MCC18\src\traditional\proc\p18F2620.asm
                    CCPR1   0x000fbe       data     extern C:\MCC18\src\traditional\proc\p18F2620.asm
                   CCPR1H   0x000fbf       data     extern C:\MCC18\src\traditional\proc\p18F2620.asm
                   CCPR1L   0x000fbe       data     extern C:\MCC18\src\traditional\proc\p18F2620.asm
                    CCPR2   0x000fbb       data     extern C:\MCC18\src\traditional\proc\p18F2620.asm
                   CCPR2H   0x000fbc       data     extern C:\MCC18\src\traditional\proc\p18F2620.asm
                   CCPR2L   0x000fbb       data     extern C:\MCC18\src\traditional\proc\p18F2620.asm
                    CMCON   0x000fb4       data     extern C:\MCC18\src\traditional\proc\p18F2620.asm
                CMCONbits   0x000fb4       data     extern C:\MCC18\src\traditional\proc\p18F2620.asm
                   CVRCON   0x000fb5       data     extern C:\MCC18\src\traditional\proc\p18F2620.asm
               CVRCONbits   0x000fb5       data     extern C:\MCC18\src\traditional\proc\p18F2620.asm
                     DDRA   0x000f92       data     extern C:\MCC18\src\traditional\proc\p18F2620.asm
                 DDRAbits   0x000f92       data     extern C:\MCC18\src\traditional\proc\p18F2620.asm
                     DDRB   0x000f93       data     extern C:\MCC18\src\traditional\proc\p18F2620.asm
                 DDRBbits   0x000f93       data     extern C:\MCC18\src\traditional\proc\p18F2620.asm
                     DDRC   0x000f94       data     extern C:\MCC18\src\traditional\proc\p18F2620.asm
                 DDRCbits   0x000f94       data     extern C:\MCC18\src\traditional\proc\p18F2620.asm
                    DEBUG   0x000fd4       data     extern C:\MCC18\src\traditional\proc\p18F2620.asm
            DelayCounter1   0x000005       data     extern C:\MCC18\src\traditional\delays\delayd1.asm
            DelayCounter2   0x000004       data     extern C:\MCC18\src\traditional\delays\delayd2.asm
                    EEADR   0x000fa9       data     extern C:\MCC18\src\traditional\proc\p18F2620.asm
                   EEADRH   0x000faa       data     extern C:\MCC18\src\traditional\proc\p18F2620.asm
                   EECON1   0x000fa6       data     extern C:\MCC18\src\traditional\proc\p18F2620.asm
               EECON1bits   0x000fa6       data     extern C:\MCC18\src\traditional\proc\p18F2620.asm
                   EECON2   0x000fa7       data     extern C:\MCC18\src\traditional\proc\p18F2620.asm
                   EEDATA   0x000fa8       data     extern C:\MCC18\src\traditional\proc\p18F2620.asm
                     FSR0   0x000fe9       data     extern C:\MCC18\src\traditional\proc\p18F2620.asm
                    FSR0H   0x000fea       data     extern C:\MCC18\src\traditional\proc\p18F2620.asm
                    FSR0L   0x000fe9       data     extern C:\MCC18\src\traditional\proc\p18F2620.asm
                     FSR1   0x000fe1       data     extern C:\MCC18\src\traditional\proc\p18F2620.asm
                    FSR1H   0x000fe2       data     extern C:\MCC18\src\traditional\proc\p18F2620.asm
                    FSR1L   0x000fe1       data     extern C:\MCC18\src\traditional\proc\p18F2620.asm
                     FSR2   0x000fd9       data     extern C:\MCC18\src\traditional\proc\p18F2620.asm
                    FSR2H   0x000fda       data     extern C:\MCC18\src\traditional\proc\p18F2620.asm
                    FSR2L   0x000fd9       data     extern C:\MCC18\src\traditional\proc\p18F2620.asm
                  HLVDCON   0x000fd2       data     extern C:\MCC18\src\traditional\proc\p18F2620.asm
              HLVDCONbits   0x000fd2       data     extern C:\MCC18\src\traditional\proc\p18F2620.asm
                    INDF0   0x000fef       data     extern C:\MCC18\src\traditional\proc\p18F2620.asm
                    INDF1   0x000fe7       data     extern C:\MCC18\src\traditional\proc\p18F2620.asm
                    INDF2   0x000fdf       data     extern C:\MCC18\src\traditional\proc\p18F2620.asm
                   INTCON   0x000ff2       data     extern C:\MCC18\src\traditional\proc\p18F2620.asm
                  INTCON2   0x000ff1       data     extern C:\MCC18\src\traditional\proc\p18F2620.asm
              INTCON2bits   0x000ff1       data     extern C:\MCC18\src\traditional\proc\p18F2620.asm
                  INTCON3   0x000ff0       data     extern C:\MCC18\src\traditional\proc\p18F2620.asm
              INTCON3bits   0x000ff0       data     extern C:\MCC18\src\traditional\proc\p18F2620.asm
               INTCONbits   0x000ff2       data     extern C:\MCC18\src\traditional\proc\p18F2620.asm
                     IPR1   0x000f9f       data     extern C:\MCC18\src\traditional\proc\p18F2620.asm
                 IPR1bits   0x000f9f       data     extern C:\MCC18\src\traditional\proc\p18F2620.asm
                     IPR2   0x000fa2       data     extern C:\MCC18\src\traditional\proc\p18F2620.asm
                 IPR2bits   0x000fa2       data     extern C:\MCC18\src\traditional\proc\p18F2620.asm
                     LATA   0x000f89       data     extern C:\MCC18\src\traditional\proc\p18F2620.asm
                 LATAbits   0x000f89       data     extern C:\MCC18\src\traditional\proc\p18F2620.asm
                     LATB   0x000f8a       data     extern C:\MCC18\src\traditional\proc\p18F2620.asm
                 LATBbits   0x000f8a       data     extern C:\MCC18\src\traditional\proc\p18F2620.asm
                     LATC   0x000f8b       data     extern C:\MCC18\src\traditional\proc\p18F2620.asm
                 LATCbits   0x000f8b       data     extern C:\MCC18\src\traditional\proc\p18F2620.asm
                   LVDCON   0x000fd2       data     extern C:\MCC18\src\traditional\proc\p18F2620.asm
               LVDCONbits   0x000fd2       data     extern C:\MCC18\src\traditional\proc\p18F2620.asm
                   OSCCON   0x000fd3       data     extern C:\MCC18\src\traditional\proc\p18F2620.asm
               OSCCONbits   0x000fd3       data     extern C:\MCC18\src\traditional\proc\p18F2620.asm
                  OSCTUNE   0x000f9b       data     extern C:\MCC18\src\traditional\proc\p18F2620.asm
              OSCTUNEbits   0x000f9b       data     extern C:\MCC18\src\traditional\proc\p18F2620.asm
                       PC   0x000ff9       data     extern C:\MCC18\src\traditional\proc\p18F2620.asm
                      PCL   0x000ff9       data     extern C:\MCC18\src\traditional\proc\p18F2620.asm
                   PCLATH   0x000ffa       data     extern C:\MCC18\src\traditional\proc\p18F2620.asm
                   PCLATU   0x000ffb       data     extern C:\MCC18\src\traditional\proc\p18F2620.asm
                     PIE1   0x000f9d       data     extern C:\MCC18\src\traditional\proc\p18F2620.asm
                 PIE1bits   0x000f9d       data     extern C:\MCC18\src\traditional\proc\p18F2620.asm
                     PIE2   0x000fa0       data     extern C:\MCC18\src\traditional\proc\p18F2620.asm
                 PIE2bits   0x000fa0       data     extern C:\MCC18\src\traditional\proc\p18F2620.asm
                     PIR1   0x000f9e       data     extern C:\MCC18\src\traditional\proc\p18F2620.asm
                 PIR1bits   0x000f9e       data     extern C:\MCC18\src\traditional\proc\p18F2620.asm
                     PIR2   0x000fa1       data     extern C:\MCC18\src\traditional\proc\p18F2620.asm
                 PIR2bits   0x000fa1       data     extern C:\MCC18\src\traditional\proc\p18F2620.asm
                   PLUSW0   0x000feb       data     extern C:\MCC18\src\traditional\proc\p18F2620.asm
                   PLUSW1   0x000fe3       data     extern C:\MCC18\src\traditional\proc\p18F2620.asm
                   PLUSW2   0x000fdb       data     extern C:\MCC18\src\traditional\proc\p18F2620.asm
                    PORTA   0x000f80       data     extern C:\MCC18\src\traditional\proc\p18F2620.asm
                PORTAbits   0x000f80       data     extern C:\MCC18\src\traditional\proc\p18F2620.asm
                    PORTB   0x000f81       data     extern C:\MCC18\src\traditional\proc\p18F2620.asm
                PORTBbits   0x000f81       data     extern C:\MCC18\src\traditional\proc\p18F2620.asm
                    PORTC   0x000f82       data     extern C:\MCC18\src\traditional\proc\p18F2620.asm
                PORTCbits   0x000f82       data     extern C:\MCC18\src\traditional\proc\p18F2620.asm
                    PORTE   0x000f84       data     extern C:\MCC18\src\traditional\proc\p18F2620.asm
                PORTEbits   0x000f84       data     extern C:\MCC18\src\traditional\proc\p18F2620.asm
                 POSTDEC0   0x000fed       data     extern C:\MCC18\src\traditional\proc\p18F2620.asm
                 POSTDEC1   0x000fe5       data     extern C:\MCC18\src\traditional\proc\p18F2620.asm
                 POSTDEC2   0x000fdd       data     extern C:\MCC18\src\traditional\proc\p18F2620.asm
                 POSTINC0   0x000fee       data     extern C:\MCC18\src\traditional\proc\p18F2620.asm
                 POSTINC1   0x000fe6       data     extern C:\MCC18\src\traditional\proc\p18F2620.asm
                 POSTINC2   0x000fde       data     extern C:\MCC18\src\traditional\proc\p18F2620.asm
                      PR2   0x000fcb       data     extern C:\MCC18\src\traditional\proc\p18F2620.asm
                  PREINC0   0x000fec       data     extern C:\MCC18\src\traditional\proc\p18F2620.asm
                  PREINC1   0x000fe4       data     extern C:\MCC18\src\traditional\proc\p18F2620.asm
                  PREINC2   0x000fdc       data     extern C:\MCC18\src\traditional\proc\p18F2620.asm
                     PROD   0x000ff3       data     extern C:\MCC18\src\traditional\proc\p18F2620.asm
                    PRODH   0x000ff4       data     extern C:\MCC18\src\traditional\proc\p18F2620.asm
                    PRODL   0x000ff3       data     extern C:\MCC18\src\traditional\proc\p18F2620.asm
                     RCON   0x000fd0       data     extern C:\MCC18\src\traditional\proc\p18F2620.asm
                 RCONbits   0x000fd0       data     extern C:\MCC18\src\traditional\proc\p18F2620.asm
                    RCREG   0x000fae       data     extern C:\MCC18\src\traditional\proc\p18F2620.asm
                    RCSTA   0x000fab       data     extern C:\MCC18\src\traditional\proc\p18F2620.asm
                RCSTAbits   0x000fab       data     extern C:\MCC18\src\traditional\proc\p18F2620.asm
                     SIGN   0x000000       data     extern C:\MCC18\src\traditional\math\cmath18.asm
                    SPBRG   0x000faf       data     extern C:\MCC18\src\traditional\proc\p18F2620.asm
                   SPBRGH   0x000fb0       data     extern C:\MCC18\src\traditional\proc\p18F2620.asm
                   SSPADD   0x000fc8       data     extern C:\MCC18\src\traditional\proc\p18F2620.asm
                   SSPBUF   0x000fc9       data     extern C:\MCC18\src\traditional\proc\p18F2620.asm
                  SSPCON1   0x000fc6       data     extern C:\MCC18\src\traditional\proc\p18F2620.asm
              SSPCON1bits   0x000fc6       data     extern C:\MCC18\src\traditional\proc\p18F2620.asm
                  SSPCON2   0x000fc5       data     extern C:\MCC18\src\traditional\proc\p18F2620.asm
              SSPCON2bits   0x000fc5       data     extern C:\MCC18\src\traditional\proc\p18F2620.asm
                  SSPSTAT   0x000fc7       data     extern C:\MCC18\src\traditional\proc\p18F2620.asm
              SSPSTATbits   0x000fc7       data     extern C:\MCC18\src\traditional\proc\p18F2620.asm
                   STATUS   0x000fd8       data     extern C:\MCC18\src\traditional\proc\p18F2620.asm
               STATUSbits   0x000fd8       data     extern C:\MCC18\src\traditional\proc\p18F2620.asm
                   STKPTR   0x000ffc       data     extern C:\MCC18\src\traditional\proc\p18F2620.asm
               STKPTRbits   0x000ffc       data     extern C:\MCC18\src\traditional\proc\p18F2620.asm
                    T0CON   0x000fd5       data     extern C:\MCC18\src\traditional\proc\p18F2620.asm
                T0CONbits   0x000fd5       data     extern C:\MCC18\src\traditional\proc\p18F2620.asm
                    T1CON   0x000fcd       data     extern C:\MCC18\src\traditional\proc\p18F2620.asm
                T1CONbits   0x000fcd       data     extern C:\MCC18\src\traditional\proc\p18F2620.asm
                    T2CON   0x000fca       data     extern C:\MCC18\src\traditional\proc\p18F2620.asm
                T2CONbits   0x000fca       data     extern C:\MCC18\src\traditional\proc\p18F2620.asm
                    T3CON   0x000fb1       data     extern C:\MCC18\src\traditional\proc\p18F2620.asm
                T3CONbits   0x000fb1       data     extern C:\MCC18\src\traditional\proc\p18F2620.asm
                   TABLAT   0x000ff5       data     extern C:\MCC18\src\traditional\proc\p18F2620.asm
                   TBLPTR   0x000ff6       data     extern C:\MCC18\src\traditional\proc\p18F2620.asm
                  TBLPTRH   0x000ff7       data     extern C:\MCC18\src\traditional\proc\p18F2620.asm
                  TBLPTRL   0x000ff6       data     extern C:\MCC18\src\traditional\proc\p18F2620.asm
                  TBLPTRU   0x000ff8       data     extern C:\MCC18\src\traditional\proc\p18F2620.asm
                    TMR0H   0x000fd7       data     extern C:\MCC18\src\traditional\proc\p18F2620.asm
                    TMR0L   0x000fd6       data     extern C:\MCC18\src\traditional\proc\p18F2620.asm
                    TMR1H   0x000fcf       data     extern C:\MCC18\src\traditional\proc\p18F2620.asm
                    TMR1L   0x000fce       data     extern C:\MCC18\src\traditional\proc\p18F2620.asm
                     TMR2   0x000fcc       data     extern C:\MCC18\src\traditional\proc\p18F2620.asm
                    TMR3H   0x000fb3       data     extern C:\MCC18\src\traditional\proc\p18F2620.asm
                    TMR3L   0x000fb2       data     extern C:\MCC18\src\traditional\proc\p18F2620.asm
                      TOS   0x000ffd       data     extern C:\MCC18\src\traditional\proc\p18F2620.asm
                     TOSH   0x000ffe       data     extern C:\MCC18\src\traditional\proc\p18F2620.asm
                     TOSL   0x000ffd       data     extern C:\MCC18\src\traditional\proc\p18F2620.asm
                     TOSU   0x000fff       data     extern C:\MCC18\src\traditional\proc\p18F2620.asm
                    TRISA   0x000f92       data     extern C:\MCC18\src\traditional\proc\p18F2620.asm
                TRISAbits   0x000f92       data     extern C:\MCC18\src\traditional\proc\p18F2620.asm
                    TRISB   0x000f93       data     extern C:\MCC18\src\traditional\proc\p18F2620.asm
                TRISBbits   0x000f93       data     extern C:\MCC18\src\traditional\proc\p18F2620.asm
                    TRISC   0x000f94       data     extern C:\MCC18\src\traditional\proc\p18F2620.asm
                TRISCbits   0x000f94       data     extern C:\MCC18\src\traditional\proc\p18F2620.asm
                    TXREG   0x000fad       data     extern C:\MCC18\src\traditional\proc\p18F2620.asm
                    TXSTA   0x000fac       data     extern C:\MCC18\src\traditional\proc\p18F2620.asm
                TXSTAbits   0x000fac       data     extern C:\MCC18\src\traditional\proc\p18F2620.asm
                        W   0x000fe8       data     extern C:\MCC18\src\traditional\proc\p18F2620.asm
                   WDTCON   0x000fd1       data     extern C:\MCC18\src\traditional\proc\p18F2620.asm
               WDTCONbits   0x000fd1       data     extern C:\MCC18\src\traditional\proc\p18F2620.asm
                     WREG   0x000fe8       data     extern C:\MCC18\src\traditional\proc\p18F2620.asm
                __FPFLAGS   0x000001       data     extern C:\MCC18\src\traditional\math\cmath18.asm
            __FPFLAGSbits   0x000001       data     extern C:\MCC18\src\traditional\math\cmath18.asm
                  __tmp_0   0x000002       data     static P:\Nixie\Design_Files\nixie_v8.c
                  __tmp_0   0x000002       data     static C:\MCC18\src\pmc_common\Timers\t0read.c
                curr_byte   0x000083       data     static C:\MCC18\src\traditional\startup\c018i.c
               curr_entry   0x000085       data     static C:\MCC18\src\traditional\startup\c018i.c
                 data_ptr   0x000087       data     static C:\MCC18\src\traditional\startup\c018i.c
                     prom   0x000080       data     static C:\MCC18\src\traditional\startup\c018i.c



                              Symbols - Sorted by Address
                     Name    Address   Location    Storage File                     
                ---------  ---------  ---------  --------- ---------                
                   _entry   0x000000    program     extern C:\MCC18\src\traditional\startup\c018i.c
       ___return_lbl00000   0x000004    program     static                          
         SetupPICHardware   0x000008    program     extern P:\Nixie\Design_Files\nixie_v8.c
             SetupPCA9555   0x000042    program     extern P:\Nixie\Design_Files\nixie_v8.c
             SetupPCF8593   0x000088    program     extern P:\Nixie\Design_Files\nixie_v8.c
             BlankDisplay   0x000134    program     extern P:\Nixie\Design_Files\nixie_v8.c
       ___return_lbl00003   0x00013e    program     static                          
            PCA9555_Write   0x000146    program     extern P:\Nixie\Design_Files\nixie_v8.c
            PCF8593_Write   0x000196    program     extern P:\Nixie\Design_Files\nixie_v8.c
             PCF8593_Read   0x0001da    program     extern P:\Nixie\Design_Files\nixie_v8.c
                 ReadTime   0x00027c    program     extern P:\Nixie\Design_Files\nixie_v8.c
                  SetTime   0x0002ac    program     extern P:\Nixie\Design_Files\nixie_v8.c
          ScrollTheDigits   0x0002dc    program     extern P:\Nixie\Design_Files\nixie_v8.c
            CompareOldNew   0x000338    program     extern P:\Nixie\Design_Files\nixie_v8.c
               UpdateTime   0x000380    program     extern P:\Nixie\Design_Files\nixie_v8.c
             UpdateDigits   0x0003d8    program     extern P:\Nixie\Design_Files\nixie_v8.c
         Read_Tic_Counter   0x0004f2    program     extern P:\Nixie\Design_Files\nixie_v8.c
        Clear_Tic_Counter   0x0004fa    program     extern P:\Nixie\Design_Files\nixie_v8.c
        Update_MSF_Record   0x00050a    program     extern P:\Nixie\Design_Files\nixie_v8.c
       ___return_lbl00040   0x000514    program     static                          
                     main   0x00051c    program     extern P:\Nixie\Design_Files\nixie_v8.c
        ___while_lbl00042   0x000588    program     static                          
       ___case_0_lbl00045   0x0005ac    program     static                          
        ___while_lbl00046   0x0005c2    program     static                          
               __tmplbl_1   0x0005c8    program     static                          
               __tmplbl_0   0x0005de    program     static                          
        ___while_lbl00047   0x0005ee    program     static                          
           ___if_lbl00049   0x000608    program     static                          
        ___while_lbl00050   0x000618    program     static                          
               __tmplbl_4   0x00061c    program     static                          
               __tmplbl_3   0x000622    program     static                          
               __tmplbl_2   0x000638    program     static                          
        ___while_lbl00051   0x000652    program     static                          
           ___if_lbl00054   0x00066c    program     static                          
         ___else_lbl00057   0x000680    program     static                          
           ___if_lbl00056   0x0006f2    program     static                          
           ___if_lbl00055   0x0006f2    program     static                          
       ___case_1_lbl00058   0x0006f4    program     static                          
        ___while_lbl00059   0x00070a    program     static                          
               __tmplbl_7   0x00070e    program     static                          
               __tmplbl_6   0x000714    program     static                          
               __tmplbl_5   0x00072a    program     static                          
        ___while_lbl00060   0x000744    program     static                          
           ___if_lbl00063   0x000760    program     static                          
        ___while_lbl00064   0x000770    program     static                          
              __tmplbl_10   0x000774    program     static                          
               __tmplbl_9   0x00077a    program     static                          
               __tmplbl_8   0x000790    program     static                          
        ___while_lbl00065   0x0007aa    program     static                          
         ___else_lbl00070   0x0007b6    program     static                          
           ___if_lbl00069   0x0007e0    program     static                          
           ___if_lbl00068   0x0007e0    program     static                          
        ___while_lbl00071   0x0007e0    program     static                          
        ___while_lbl00072   0x000810    program     static                          
           ___if_lbl00073   0x00087e    program     static                          
       ___case_2_lbl00074   0x000880    program     static                          
        ___while_lbl00075   0x000896    program     static                          
              __tmplbl_13   0x00089a    program     static                          
              __tmplbl_12   0x0008a0    program     static                          
              __tmplbl_11   0x0008b6    program     static                          
        ___while_lbl00076   0x0008d0    program     static                          
           ___if_lbl00079   0x0008ea    program     static                          
        ___while_lbl00080   0x0008fa    program     static                          
        ___while_lbl00081   0x00092a    program     static                          
           ___if_lbl00082   0x00092e    program     static                          
        ___while_lbl00083   0x00093c    program     static                          
        ___while_lbl00084   0x00096c    program     static                          
        ___while_lbl00085   0x000994    program     static                          
        ___while_lbl00086   0x0009c4    program     static                          
         ___else_lbl00088   0x000a0e    program     static                          
        ___while_lbl00089   0x000a18    program     static                          
           ___if_lbl00087   0x000a18    program     static                          
        ___while_lbl00090   0x000a48    program     static                          
           ___if_lbl00091   0x000ab6    program     static                          
       ___case_3_lbl00092   0x000ab8    program     static                          
      ___default_lbl00093   0x000ac4    program     static                          
   ___switchexit_lbl00044   0x000ac6    program     static                          
         ___else_lbl00096   0x000ac8    program     static                          
           ___if_lbl00094   0x000b3a    program     static                          
           ___if_lbl00095   0x000b46    program     static                          
        ___while_lbl00043   0x000b48    program     static                          
       ___return_lbl00041   0x000b48    program     static                          
                _do_cinit   0x000b5c    program     extern C:\MCC18\src\traditional\startup\c018i.c
                     test   0x000b76    program     static                          
                copy_loop   0x000bce    program     static                          
            copy_one_byte   0x000bd4    program     static                          
             done_copying   0x000be2    program     static                          
                     done   0x000bf8    program     static                          
       ___return_lbl00002   0x000bf8    program     static                          
                 WriteI2C   0x000bfa    program     extern C:\MCC18\src\pmc_common\i2c\i2c_writ.c
               ReadTimer0   0x000c6c    program     extern C:\MCC18\src\pmc_common\Timers\t0read.c
              WriteTimer0   0x000caa    program     extern C:\MCC18\src\pmc_common\Timers\t0write.c
               OpenTimer0   0x000ce2    program     extern C:\MCC18\src\pmc_common\Timers\t0open.c
                  OpenI2C   0x000d1a    program     extern C:\MCC18\src\pmc_common\i2c\i2c_open.c
             Delay10KTCYx   0x000d50    program     extern C:\MCC18\src\traditional\delays\d10ktcyx.asm
                    D10Kx   0x000d5a    program     static C:\MCC18\src\traditional\delays\d10ktcyx.asm
                   D10K_1   0x000d5c    program     static C:\MCC18\src\traditional\delays\d10ktcyx.asm
       _D10KTCYXCODE_0010   0x000d60    program     static C:\MCC18\src\traditional\delays\d10ktcyx.asm
                    D10Kl   0x000d68    program     static C:\MCC18\src\traditional\delays\d10ktcyx.asm
       _D10KTCYXCODE_001C   0x000d6c    program     static C:\MCC18\src\traditional\delays\d10ktcyx.asm
                  minsx10   0x000d7e    program     extern P:\Nixie\Design_Files\nixie_v8.c
                   minsx1   0x000d88    program     extern P:\Nixie\Design_Files\nixie_v8.c
                   hrsx10   0x000d92    program     extern P:\Nixie\Design_Files\nixie_v8.c
                    hrsx1   0x000d9c    program     extern P:\Nixie\Design_Files\nixie_v8.c
            __zero_memory   0x000da6    program     extern C:\MCC18\src\traditional\proc\p18F2620.asm
                   loop_h   0x000db4    program     static C:\MCC18\src\traditional\proc\p18F2620.asm
               zero_block   0x000db4    program     static C:\MCC18\src\traditional\proc\p18F2620.asm
                compare_l   0x000dbc    program     static C:\MCC18\src\traditional\proc\p18F2620.asm
                   loop_l   0x000dbe    program     static C:\MCC18\src\traditional\proc\p18F2620.asm
                 _startup   0x000dc6    program     extern C:\MCC18\src\traditional\startup\c018i.c
                     loop   0x000dd6    program     static                          
       ___return_lbl00001   0x000de0    program     static                          
             Delay100TCYx   0x000de2    program     extern C:\MCC18\src\traditional\delays\d100tcyx.asm
       _D100TCYXCODE_0008   0x000dea    program     static C:\MCC18\src\traditional\delays\d100tcyx.asm
                    D100x   0x000dee    program     static C:\MCC18\src\traditional\delays\d100tcyx.asm
                   D100_1   0x000df0    program     static C:\MCC18\src\traditional\delays\d100tcyx.asm
       _D100TCYXCODE_0012   0x000df4    program     static C:\MCC18\src\traditional\delays\d100tcyx.asm
       _D100TCYXCODE_0018   0x000dfa    program     static C:\MCC18\src\traditional\delays\d100tcyx.asm
                  ReadI2C   0x000dfe    program     extern C:\MCC18\src\pmc_common\i2c\i2c_read.c
                  IdleI2C   0x000e18    program     extern C:\MCC18\src\pmc_common\i2c\i2c_idle.c
                   __init   0x000e26    program     extern C:\MCC18\src\traditional\stdclib\__init.c
                     SIGN   0x000000       data     extern C:\MCC18\src\traditional\math\cmath18.asm
            __FPFLAGSbits   0x000001       data     extern C:\MCC18\src\traditional\math\cmath18.asm
                __FPFLAGS   0x000001       data     extern C:\MCC18\src\traditional\math\cmath18.asm
                  __tmp_0   0x000002       data     static C:\MCC18\src\pmc_common\Timers\t0read.c
                  __tmp_0   0x000002       data     static P:\Nixie\Design_Files\nixie_v8.c
            DelayCounter2   0x000004       data     extern C:\MCC18\src\traditional\delays\delayd2.asm
            DelayCounter1   0x000005       data     extern C:\MCC18\src\traditional\delays\delayd1.asm
                     prom   0x000080       data     static C:\MCC18\src\traditional\startup\c018i.c
                curr_byte   0x000083       data     static C:\MCC18\src\traditional\startup\c018i.c
               curr_entry   0x000085       data     static C:\MCC18\src\traditional\startup\c018i.c
                 data_ptr   0x000087       data     static C:\MCC18\src\traditional\startup\c018i.c
                    PORTA   0x000f80       data     extern C:\MCC18\src\traditional\proc\p18F2620.asm
                PORTAbits   0x000f80       data     extern C:\MCC18\src\traditional\proc\p18F2620.asm
                PORTBbits   0x000f81       data     extern C:\MCC18\src\traditional\proc\p18F2620.asm
                    PORTB   0x000f81       data     extern C:\MCC18\src\traditional\proc\p18F2620.asm
                PORTCbits   0x000f82       data     extern C:\MCC18\src\traditional\proc\p18F2620.asm
                    PORTC   0x000f82       data     extern C:\MCC18\src\traditional\proc\p18F2620.asm
                PORTEbits   0x000f84       data     extern C:\MCC18\src\traditional\proc\p18F2620.asm
                    PORTE   0x000f84       data     extern C:\MCC18\src\traditional\proc\p18F2620.asm
                 LATAbits   0x000f89       data     extern C:\MCC18\src\traditional\proc\p18F2620.asm
                     LATA   0x000f89       data     extern C:\MCC18\src\traditional\proc\p18F2620.asm
                     LATB   0x000f8a       data     extern C:\MCC18\src\traditional\proc\p18F2620.asm
                 LATBbits   0x000f8a       data     extern C:\MCC18\src\traditional\proc\p18F2620.asm
                     LATC   0x000f8b       data     extern C:\MCC18\src\traditional\proc\p18F2620.asm
                 LATCbits   0x000f8b       data     extern C:\MCC18\src\traditional\proc\p18F2620.asm
                 DDRAbits   0x000f92       data     extern C:\MCC18\src\traditional\proc\p18F2620.asm
                     DDRA   0x000f92       data     extern C:\MCC18\src\traditional\proc\p18F2620.asm
                    TRISA   0x000f92       data     extern C:\MCC18\src\traditional\proc\p18F2620.asm
                TRISAbits   0x000f92       data     extern C:\MCC18\src\traditional\proc\p18F2620.asm
                    TRISB   0x000f93       data     extern C:\MCC18\src\traditional\proc\p18F2620.asm
                     DDRB   0x000f93       data     extern C:\MCC18\src\traditional\proc\p18F2620.asm
                 DDRBbits   0x000f93       data     extern C:\MCC18\src\traditional\proc\p18F2620.asm
                TRISBbits   0x000f93       data     extern C:\MCC18\src\traditional\proc\p18F2620.asm
                TRISCbits   0x000f94       data     extern C:\MCC18\src\traditional\proc\p18F2620.asm
                    TRISC   0x000f94       data     extern C:\MCC18\src\traditional\proc\p18F2620.asm
                 DDRCbits   0x000f94       data     extern C:\MCC18\src\traditional\proc\p18F2620.asm
                     DDRC   0x000f94       data     extern C:\MCC18\src\traditional\proc\p18F2620.asm
              OSCTUNEbits   0x000f9b       data     extern C:\MCC18\src\traditional\proc\p18F2620.asm
                  OSCTUNE   0x000f9b       data     extern C:\MCC18\src\traditional\proc\p18F2620.asm
                 PIE1bits   0x000f9d       data     extern C:\MCC18\src\traditional\proc\p18F2620.asm
                     PIE1   0x000f9d       data     extern C:\MCC18\src\traditional\proc\p18F2620.asm
                 PIR1bits   0x000f9e       data     extern C:\MCC18\src\traditional\proc\p18F2620.asm
                     PIR1   0x000f9e       data     extern C:\MCC18\src\traditional\proc\p18F2620.asm
                     IPR1   0x000f9f       data     extern C:\MCC18\src\traditional\proc\p18F2620.asm
                 IPR1bits   0x000f9f       data     extern C:\MCC18\src\traditional\proc\p18F2620.asm
                     PIE2   0x000fa0       data     extern C:\MCC18\src\traditional\proc\p18F2620.asm
                 PIE2bits   0x000fa0       data     extern C:\MCC18\src\traditional\proc\p18F2620.asm
                     PIR2   0x000fa1       data     extern C:\MCC18\src\traditional\proc\p18F2620.asm
                 PIR2bits   0x000fa1       data     extern C:\MCC18\src\traditional\proc\p18F2620.asm
                 IPR2bits   0x000fa2       data     extern C:\MCC18\src\traditional\proc\p18F2620.asm
                     IPR2   0x000fa2       data     extern C:\MCC18\src\traditional\proc\p18F2620.asm
               EECON1bits   0x000fa6       data     extern C:\MCC18\src\traditional\proc\p18F2620.asm
                   EECON1   0x000fa6       data     extern C:\MCC18\src\traditional\proc\p18F2620.asm
                   EECON2   0x000fa7       data     extern C:\MCC18\src\traditional\proc\p18F2620.asm
                   EEDATA   0x000fa8       data     extern C:\MCC18\src\traditional\proc\p18F2620.asm
                    EEADR   0x000fa9       data     extern C:\MCC18\src\traditional\proc\p18F2620.asm
                   EEADRH   0x000faa       data     extern C:\MCC18\src\traditional\proc\p18F2620.asm
                RCSTAbits   0x000fab       data     extern C:\MCC18\src\traditional\proc\p18F2620.asm
                    RCSTA   0x000fab       data     extern C:\MCC18\src\traditional\proc\p18F2620.asm
                    TXSTA   0x000fac       data     extern C:\MCC18\src\traditional\proc\p18F2620.asm
                TXSTAbits   0x000fac       data     extern C:\MCC18\src\traditional\proc\p18F2620.asm
                    TXREG   0x000fad       data     extern C:\MCC18\src\traditional\proc\p18F2620.asm
                    RCREG   0x000fae       data     extern C:\MCC18\src\traditional\proc\p18F2620.asm
                    SPBRG   0x000faf       data     extern C:\MCC18\src\traditional\proc\p18F2620.asm
                   SPBRGH   0x000fb0       data     extern C:\MCC18\src\traditional\proc\p18F2620.asm
                T3CONbits   0x000fb1       data     extern C:\MCC18\src\traditional\proc\p18F2620.asm
                    T3CON   0x000fb1       data     extern C:\MCC18\src\traditional\proc\p18F2620.asm
                    TMR3L   0x000fb2       data     extern C:\MCC18\src\traditional\proc\p18F2620.asm
                    TMR3H   0x000fb3       data     extern C:\MCC18\src\traditional\proc\p18F2620.asm
                CMCONbits   0x000fb4       data     extern C:\MCC18\src\traditional\proc\p18F2620.asm
                    CMCON   0x000fb4       data     extern C:\MCC18\src\traditional\proc\p18F2620.asm
               CVRCONbits   0x000fb5       data     extern C:\MCC18\src\traditional\proc\p18F2620.asm
                   CVRCON   0x000fb5       data     extern C:\MCC18\src\traditional\proc\p18F2620.asm
              BAUDCTLbits   0x000fb8       data     extern C:\MCC18\src\traditional\proc\p18F2620.asm
                  BAUDCTL   0x000fb8       data     extern C:\MCC18\src\traditional\proc\p18F2620.asm
              BAUDCONbits   0x000fb8       data     extern C:\MCC18\src\traditional\proc\p18F2620.asm
                  BAUDCON   0x000fb8       data     extern C:\MCC18\src\traditional\proc\p18F2620.asm
                  CCP2CON   0x000fba       data     extern C:\MCC18\src\traditional\proc\p18F2620.asm
              CCP2CONbits   0x000fba       data     extern C:\MCC18\src\traditional\proc\p18F2620.asm
                   CCPR2L   0x000fbb       data     extern C:\MCC18\src\traditional\proc\p18F2620.asm
                    CCPR2   0x000fbb       data     extern C:\MCC18\src\traditional\proc\p18F2620.asm
                   CCPR2H   0x000fbc       data     extern C:\MCC18\src\traditional\proc\p18F2620.asm
              CCP1CONbits   0x000fbd       data     extern C:\MCC18\src\traditional\proc\p18F2620.asm
                  CCP1CON   0x000fbd       data     extern C:\MCC18\src\traditional\proc\p18F2620.asm
                   CCPR1L   0x000fbe       data     extern C:\MCC18\src\traditional\proc\p18F2620.asm
                    CCPR1   0x000fbe       data     extern C:\MCC18\src\traditional\proc\p18F2620.asm
                   CCPR1H   0x000fbf       data     extern C:\MCC18\src\traditional\proc\p18F2620.asm
               ADCON2bits   0x000fc0       data     extern C:\MCC18\src\traditional\proc\p18F2620.asm
                   ADCON2   0x000fc0       data     extern C:\MCC18\src\traditional\proc\p18F2620.asm
               ADCON1bits   0x000fc1       data     extern C:\MCC18\src\traditional\proc\p18F2620.asm
                   ADCON1   0x000fc1       data     extern C:\MCC18\src\traditional\proc\p18F2620.asm
               ADCON0bits   0x000fc2       data     extern C:\MCC18\src\traditional\proc\p18F2620.asm
                   ADCON0   0x000fc2       data     extern C:\MCC18\src\traditional\proc\p18F2620.asm
                    ADRES   0x000fc3       data     extern C:\MCC18\src\traditional\proc\p18F2620.asm
                   ADRESL   0x000fc3       data     extern C:\MCC18\src\traditional\proc\p18F2620.asm
                   ADRESH   0x000fc4       data     extern C:\MCC18\src\traditional\proc\p18F2620.asm
                  SSPCON2   0x000fc5       data     extern C:\MCC18\src\traditional\proc\p18F2620.asm
              SSPCON2bits   0x000fc5       data     extern C:\MCC18\src\traditional\proc\p18F2620.asm
                  SSPCON1   0x000fc6       data     extern C:\MCC18\src\traditional\proc\p18F2620.asm
              SSPCON1bits   0x000fc6       data     extern C:\MCC18\src\traditional\proc\p18F2620.asm
                  SSPSTAT   0x000fc7       data     extern C:\MCC18\src\traditional\proc\p18F2620.asm
              SSPSTATbits   0x000fc7       data     extern C:\MCC18\src\traditional\proc\p18F2620.asm
                   SSPADD   0x000fc8       data     extern C:\MCC18\src\traditional\proc\p18F2620.asm
                   SSPBUF   0x000fc9       data     extern C:\MCC18\src\traditional\proc\p18F2620.asm
                T2CONbits   0x000fca       data     extern C:\MCC18\src\traditional\proc\p18F2620.asm
                    T2CON   0x000fca       data     extern C:\MCC18\src\traditional\proc\p18F2620.asm
                      PR2   0x000fcb       data     extern C:\MCC18\src\traditional\proc\p18F2620.asm
                     TMR2   0x000fcc       data     extern C:\MCC18\src\traditional\proc\p18F2620.asm
                T1CONbits   0x000fcd       data     extern C:\MCC18\src\traditional\proc\p18F2620.asm
                    T1CON   0x000fcd       data     extern C:\MCC18\src\traditional\proc\p18F2620.asm
                    TMR1L   0x000fce       data     extern C:\MCC18\src\traditional\proc\p18F2620.asm
                    TMR1H   0x000fcf       data     extern C:\MCC18\src\traditional\proc\p18F2620.asm
                     RCON   0x000fd0       data     extern C:\MCC18\src\traditional\proc\p18F2620.asm
                 RCONbits   0x000fd0       data     extern C:\MCC18\src\traditional\proc\p18F2620.asm
               WDTCONbits   0x000fd1       data     extern C:\MCC18\src\traditional\proc\p18F2620.asm
                   WDTCON   0x000fd1       data     extern C:\MCC18\src\traditional\proc\p18F2620.asm
               LVDCONbits   0x000fd2       data     extern C:\MCC18\src\traditional\proc\p18F2620.asm
                   LVDCON   0x000fd2       data     extern C:\MCC18\src\traditional\proc\p18F2620.asm
                  HLVDCON   0x000fd2       data     extern C:\MCC18\src\traditional\proc\p18F2620.asm
              HLVDCONbits   0x000fd2       data     extern C:\MCC18\src\traditional\proc\p18F2620.asm
                   OSCCON   0x000fd3       data     extern C:\MCC18\src\traditional\proc\p18F2620.asm
               OSCCONbits   0x000fd3       data     extern C:\MCC18\src\traditional\proc\p18F2620.asm
                    DEBUG   0x000fd4       data     extern C:\MCC18\src\traditional\proc\p18F2620.asm
                T0CONbits   0x000fd5       data     extern C:\MCC18\src\traditional\proc\p18F2620.asm
                    T0CON   0x000fd5       data     extern C:\MCC18\src\traditional\proc\p18F2620.asm
                    TMR0L   0x000fd6       data     extern C:\MCC18\src\traditional\proc\p18F2620.asm
                    TMR0H   0x000fd7       data     extern C:\MCC18\src\traditional\proc\p18F2620.asm
                   STATUS   0x000fd8       data     extern C:\MCC18\src\traditional\proc\p18F2620.asm
               STATUSbits   0x000fd8       data     extern C:\MCC18\src\traditional\proc\p18F2620.asm
                     FSR2   0x000fd9       data     extern C:\MCC18\src\traditional\proc\p18F2620.asm
                    FSR2L   0x000fd9       data     extern C:\MCC18\src\traditional\proc\p18F2620.asm
                    FSR2H   0x000fda       data     extern C:\MCC18\src\traditional\proc\p18F2620.asm
                   PLUSW2   0x000fdb       data     extern C:\MCC18\src\traditional\proc\p18F2620.asm
                  PREINC2   0x000fdc       data     extern C:\MCC18\src\traditional\proc\p18F2620.asm
                 POSTDEC2   0x000fdd       data     extern C:\MCC18\src\traditional\proc\p18F2620.asm
                 POSTINC2   0x000fde       data     extern C:\MCC18\src\traditional\proc\p18F2620.asm
                    INDF2   0x000fdf       data     extern C:\MCC18\src\traditional\proc\p18F2620.asm
                      BSR   0x000fe0       data     extern C:\MCC18\src\traditional\proc\p18F2620.asm
                     FSR1   0x000fe1       data     extern C:\MCC18\src\traditional\proc\p18F2620.asm
                    FSR1L   0x000fe1       data     extern C:\MCC18\src\traditional\proc\p18F2620.asm
                    FSR1H   0x000fe2       data     extern C:\MCC18\src\traditional\proc\p18F2620.asm
                   PLUSW1   0x000fe3       data     extern C:\MCC18\src\traditional\proc\p18F2620.asm
                  PREINC1   0x000fe4       data     extern C:\MCC18\src\traditional\proc\p18F2620.asm
                 POSTDEC1   0x000fe5       data     extern C:\MCC18\src\traditional\proc\p18F2620.asm
                 POSTINC1   0x000fe6       data     extern C:\MCC18\src\traditional\proc\p18F2620.asm
                    INDF1   0x000fe7       data     extern C:\MCC18\src\traditional\proc\p18F2620.asm
                     WREG   0x000fe8       data     extern C:\MCC18\src\traditional\proc\p18F2620.asm
                        W   0x000fe8       data     extern C:\MCC18\src\traditional\proc\p18F2620.asm
                     FSR0   0x000fe9       data     extern C:\MCC18\src\traditional\proc\p18F2620.asm
                    FSR0L   0x000fe9       data     extern C:\MCC18\src\traditional\proc\p18F2620.asm
                    FSR0H   0x000fea       data     extern C:\MCC18\src\traditional\proc\p18F2620.asm
                   PLUSW0   0x000feb       data     extern C:\MCC18\src\traditional\proc\p18F2620.asm
                  PREINC0   0x000fec       data     extern C:\MCC18\src\traditional\proc\p18F2620.asm
                 POSTDEC0   0x000fed       data     extern C:\MCC18\src\traditional\proc\p18F2620.asm
                 POSTINC0   0x000fee       data     extern C:\MCC18\src\traditional\proc\p18F2620.asm
                    INDF0   0x000fef       data     extern C:\MCC18\src\traditional\proc\p18F2620.asm
                  INTCON3   0x000ff0       data     extern C:\MCC18\src\traditional\proc\p18F2620.asm
              INTCON3bits   0x000ff0       data     extern C:\MCC18\src\traditional\proc\p18F2620.asm
              INTCON2bits   0x000ff1       data     extern C:\MCC18\src\traditional\proc\p18F2620.asm
                  INTCON2   0x000ff1       data     extern C:\MCC18\src\traditional\proc\p18F2620.asm
               INTCONbits   0x000ff2       data     extern C:\MCC18\src\traditional\proc\p18F2620.asm
                   INTCON   0x000ff2       data     extern C:\MCC18\src\traditional\proc\p18F2620.asm
                    PRODL   0x000ff3       data     extern C:\MCC18\src\traditional\proc\p18F2620.asm
                     PROD   0x000ff3       data     extern C:\MCC18\src\traditional\proc\p18F2620.asm
                    PRODH   0x000ff4       data     extern C:\MCC18\src\traditional\proc\p18F2620.asm
                   TABLAT   0x000ff5       data     extern C:\MCC18\src\traditional\proc\p18F2620.asm
                   TBLPTR   0x000ff6       data     extern C:\MCC18\src\traditional\proc\p18F2620.asm
                  TBLPTRL   0x000ff6       data     extern C:\MCC18\src\traditional\proc\p18F2620.asm
                  TBLPTRH   0x000ff7       data     extern C:\MCC18\src\traditional\proc\p18F2620.asm
                  TBLPTRU   0x000ff8       data     extern C:\MCC18\src\traditional\proc\p18F2620.asm
                      PCL   0x000ff9       data     extern C:\MCC18\src\traditional\proc\p18F2620.asm
                       PC   0x000ff9       data     extern C:\MCC18\src\traditional\proc\p18F2620.asm
                   PCLATH   0x000ffa       data     extern C:\MCC18\src\traditional\proc\p18F2620.asm
                   PCLATU   0x000ffb       data     extern C:\MCC18\src\traditional\proc\p18F2620.asm
               STKPTRbits   0x000ffc       data     extern C:\MCC18\src\traditional\proc\p18F2620.asm
                   STKPTR   0x000ffc       data     extern C:\MCC18\src\traditional\proc\p18F2620.asm
                      TOS   0x000ffd       data     extern C:\MCC18\src\traditional\proc\p18F2620.asm
                     TOSL   0x000ffd       data     extern C:\MCC18\src\traditional\proc\p18F2620.asm
                     TOSH   0x000ffe       data     extern C:\MCC18\src\traditional\proc\p18F2620.asm
                     TOSU   0x000fff       data     extern C:\MCC18\src\traditional\proc\p18F2620.asm


