:020000040000FA
:06000000E3EF06F0120020
:020006000000F8
:080008000F0EC16EC26AC00EAA
:10001000926E936AA00E946E870EE66E71EC06F0F7
:10002000E552800EE66E080EE66E8DEC06F0E552A7
:10003000E552380EC66E180EC56EC86E000E00D0A2
:100040001200E66AE66A060EE66E420EE66E7BD89F
:10005000E552E552E552E5520A0EE66EA8EC06F0CE
:10006000E552E66AE66A060EE66E400EE66E6BD86C
:10007000E552E552E552E5520A0EE66EA8EC06F0AE
:10008000E552000E00D012008294500EE66EA8ECED
:1000900006F0E5528284280EE66EA8EC06F0E552E2
:1000A000800EE66EE66AA20EE66E75D8E552E5525F
:1000B000E5520A0EE66EA8EC06F0E552180EE66E62
:1000C000040EE66EA20EE66E66D8E552E552E552E3
:1000D0000A0EE66EA8EC06F0E552330EE66E030E4D
:1000E000E66EA20EE66E57D8E552E552E5520A0ECC
:1000F000E66EA8EC06F0E552E66A020EE66EA20E87
:10010000E66E49D8E552E552E5520A0EE66EA8ECD5
:1001100006F0E552E66AE66AA20EE66E3CD8E552C3
:10012000E552E5520A0EE66EA8EC06F0E552000E26
:1001300000D01200D9CFE6FFE1CFD9FF0000E55291
:10014000E7CFD9FF1200D9CFE6FFE1CFD9FFC580B5
:10015000C5B0FED7FE0EDBCFE6FFFDEC05F0E552A5
:10016000FD0EDBCFE6FFFDEC05F0E552FC0EDBCF2C
:10017000E6FFFDEC05F0E552FB0EDBCFE6FFFDEC04
:1001800005F0E552C584C5B4FED7000E00D0E55297
:10019000E7CFD9FF1200D9CFE6FFE1CFD9FFC58065
:1001A000C5B0FED7FE0EDBCFE6FFFDEC05F0E55255
:1001B000FD0EDBCFE6FFFDEC05F0E552FC0EDBCFDC
:1001C000E6FFFDEC05F0E552C584C5B4FED7000E90
:1001D00000D0E552E7CFD9FF1200D9CFE6FFE1CF3B
:1001E000D9FFE652FB0EDB0403E1020EDF6E02D004
:1001F000030EDF6EC580C5B0FED7FE0EDBCFE6FF77
:10020000FDEC05F0E552DFCFE6FFFDEC05F0E55231
:10021000C580C5B0FED7FE0EDB500109E66EFDECD1
:1002200005F0E552FFEC06F0E66EFC0EDBCFE9FFD1
:10023000FD0EDBCFEAFFE552E750EF6EC59AC588A9
:10024000C5B8FED7FFEC06F03F0BE66EFC0EDBCF29
:10025000E9FFFD0EDBCFEAFFEE52E552E750EF6E0D
:10026000C58AC588C5B8FED7C584C5B4FED7000EFB
:1002700000D0E552E552E7CFD9FF1200D9CFE6FF13
:10028000E1CFD9FFE66AFD0EDBCFE6FFFE0EDBCF46
:10029000E6FFA20EE66EA1DFE552E552E552E55219
:1002A000000E00D0E552E7CFD9FF1200D9CFE6FF0C
:1002B000E1CFD9FFE66AFD0EDBCFE6FFFE0EDBCF16
:1002C000E6FFA20EE66E89DFE552E552E552E55201
:1002D000000E00D0E552E7CFD9FF1200D9CFE6FFDC
:1002E000E1CFD9FF030EE126DF6A630EDF5C16E281
:1002F000010EDFCFDBFF020EDFCFDBFFD950010F96
:10030000E66E000EDA20E66E67D8E552E552640E1E
:10031000E66EA8EC06F0E552DF2AE7D7000E026E83
:10032000030EE15C03E200D0E16AE552E16E0250A7
:10033000E552E7CFD9FF1200D9CFE6FFE1CFD9FFD1
:10034000E652FB0EDBCFE9FFFC0EDBCFEAFFEECF80
:1003500002F0EFCF03F0FD0EDBCFE9FFFE0EDBCFA7
:10036000EAFFEF500001025C02E0DF6A02D0010EFA
:10037000DF6EDF5000D0E552E552E7CFD9FF120023
:10038000D9CFE6FFE1CFD9FFFB0EDBCFE9FFFC0EB3
:10039000DBCFEAFFEF50E66EFD0EDBCFE9FFFE0E8E
:1003A000DBCFEAFFE552E750EF6EFB0EDBCFE9FF54
:1003B000FC0EDBCFEAFFEE52EF50E66EFD0EDBCF18
:1003C000E9FFFE0EDBCFEAFFEE52E552E750EF6E9B
:1003D000E552E7CFD9FF1200D9CFE6FFE1CFD9FF31
:1003E000040EE126FD0EDBCFE9FFFE0EDBCFEAFFB8
:1003F000EE52EF50F00BDF6EDF380F0BDF6E0F0E9B
:10040000DF14DF6EFD0EDBCFE9FFFE0EDBCFEAFF70
:10041000EE52EF500F0BE76E010EE7CFDBFFFD0E44
:10042000DBCFE9FFFE0EDBCFEAFFEF50F00BE76E0C
:10043000020EE7CFDBFFDB380F0BE76E020EE7CFD4
:10044000DBFFDB500F0BE76E020EE7CFDBFFFD0E8D
:10045000DBCFE9FFFE0EDBCFEAFFEF500F0BE76EBD
:10046000030EE7CFDBFFDB50F76A880FF66E0D0E49
:10047000F7220800F550E66E020EDB50F76A7E0F99
:10048000F66E0D0EF7220800F550E66E020EE66ECF
:10049000420EE66E58DEE552E552E552E552010E97
:1004A000DB50F76A9C0FF66E0D0EF7220800F55030
:1004B000E66EDF50F76A920FF66E0D0EF722080017
:1004C000F550E66E020EE66E400EE66E3CDEE5523C
:1004D000E552E552E552000E026E040EE15C03E2C5
:1004E00000D0E16AE552E16E0250E552E7CFD9FF54
:1004F000120036EC06F000D01200000EE66EE66A3E
:1005000055EC06F0E552E5521200D9CFE6FFE1CFF7
:10051000D9FF0000E552E7CFD9FF1200D9CFE6FF9F
:10052000E1CFD9FF150EE126070EDB6A080EDB6A64
:10053000080EF36E090EF3CFDBFF080EF36E0A0E02
:10054000F3CFDBFF0B0EDB6A0C0EDB6A0D0EDB6AF2
:100550000E0EDB6A0F0EDB6A100EDB6A110EDB6A11
:10056000120EDB6A130EDB6A140EDB6A020EDB6A04
:100570004BDD67DD89DDD950090FE66E000EDA200C
:10058000E66E2ADFE552E552020EDB0401E09CD262
:100590000D0EDB50030A01E18FD2010A01E170D197
:1005A000030A01E1A7D0010A01E08CD2DF6A0E0E36
:1005B000DB6AA3DF9EDF050EF3CFDBFF060EF4CF71
:1005C000DBFF8250800B13E1050EDBCF02F0060E3D
:1005D000DBCF03F0BA0E025C900E035808E289DF0D
:1005E000050EF3CFDBFF060EF4CFDBFFEAD7D950C1
:1005F000050FE96EDACFEAFFBA0ED880EE54900EFE
:10060000ED5402E2000EDB8078DF73DF050EF3CFDE
:10061000DBFF060EF4CFDBFFDF501BE18250800BC7
:1006200018E0050EDBCF02F0060EDBCF03F0CA0E9A
:10063000025C530E03580DE20A0EE66EF1EC06F072
:10064000E55257DF050EF3CFDBFF060EF4CFDBFFDD
:10065000E3D7D950050FE96EDACFEAFFCA0ED8808A
:10066000EE54530EED5402E2000EDB80DF5008E141
:10067000010EF36E0D0EF3CFDBFF0E0EDB6A39D0E9
:100680000D0EDB6AD950070FE66E000EDA20E66E1B
:10069000F5DDE552E552D950070FE66E000EDA207F
:1006A000E66ED950090FE66E000EDA20E66E44DEE3
:1006B000E552E552E552E55200091BE1D950070F1A
:1006C000E66E000EDA20E66ED950090FE66E000ED7
:1006D000DA20E66E55DEE552E552E552E5520000BD
:1006E000D950090FE66E000EDA20E66E75DEE5528F
:1006F000E552E9D1DF6A0E0EDB6AFFDEFADE050E97
:10070000F3CFDBFF060EF4CFDBFFDF501BE182509F
:10071000800B18E1050EDBCF02F0060EDBCF03F0F5
:10072000BA0E025C900E03580DE2010EE66EF1EC7B
:1007300006F0E552DEDE050EF3CFDBFF060EF4CF4A
:10074000DBFFE3D70000D950050FE96EDACFEAFFEF
:10075000BA0ED880EE54900EED5402E2000EDB800B
:10076000CCDEC7DE050EF3CFDBFF060EF4CFDBFFDA
:10077000DF501BE18250800B18E0050EDBCF02F04A
:10078000060EDBCF03F08E0E025C440E03580DE222
:10079000010EE66EF1EC06F0E552ABDE050EF3CF8E
:1007A000DBFF060EF4CFDBFFE3D70000DF5003E0F2
:1007B0000D0EDB6A15D0D950050FE96EDACFEAFFCE
:1007C0008E0ED880EE54440EED540AE2020EF36E03
:1007D0000D0EF3CFDBFF010EF36E0E0EF3CFDBFF3A
:1007E000050EDBCF02F0060EDBCF03F0890E025CB4
:1007F000940E03580DE2010EE66EF1EC06F0E552A0
:1008000078DE050EF3CFDBFF060EF4CFDBFFE8D773
:10081000D950070FE66E000EDA20E66E2FDDE552A6
:10082000E552D950070FE66E000EDA20E66ED95079
:10083000090FE66E000EDA20E66E7EDDE552E55227
:10084000E552E55200091BE1D950070FE66E000E94
:10085000DA20E66ED950090FE66E000EDA20E66E59
:100860008FDDE552E552E552E5520000D950090FFF
:10087000E66E000EDA20E66EAFDDE552E55223D1DA
:10088000DF6A010EDB6A39DE34DE050EF3CFDBFFF3
:10089000060EF4CFDBFFDF501BE18250800B18E126
:1008A000050EDBCF02F0060EDBCF03F09E0E025CDE
:1008B000FF0E03580DE2010EE66EF1EC06F0E55274
:1008C00018DE050EF3CFDBFF060EF4CFDBFFE3D718
:1008D000D950050FE96EDACFEAFF9E0ED880EE54AC
:1008E000FF0EED5402E2000EDB8007DE02DE050E95
:1008F000F3CFDBFF060EF4CFDBFF050EDBCF02F0FC
:10090000060EDBCF03F09E0E025CFF0E03580DE2D5
:10091000010EE66EF1EC06F0E552EBDD050EF3CFCD
:10092000DBFF060EF4CFDBFFE8D782AEDF82E1DD2E
:10093000050EF3CFDBFF060EF4CFDBFF050EDBCF9A
:1009400002F0060EDBCF03F0DA0E025C160E03583F
:100950000DE2010EE66EF1EC06F0E552CADD050E81
:10096000F3CFDBFF060EF4CFDBFFE8D78250800B1E
:1009700001E0010E020D010EDBCFE7FFF350E7129D
:10098000010EE7CFDBFFB5DD050EF3CFDBFF060E73
:10099000F4CFDBFF050EDBCF02F0060EDBCF03F05A
:1009A000160E025C260E03580DE2010EE66EF1EC07
:1009B00006F0E5529EDD050EF3CFDBFF060EF4CF09
:1009C000DBFFE8D78250800B01E0010E026E010EC2
:1009D000DBCFE7FF0250E712010EE7CFDBFF010E8E
:1009E000DBCFE6FFD9500D0FE66E000EDA20E66E83
:1009F0008CDDE552E552E5523B0EF36E0E0EDBCF79
:100A0000F4FFF350F45C03E20E0EDB2A05D0030E74
:100A1000F36E0D0EF3CFDBFF050EDBCF02F0060EFB
:100A2000DBCF03F0890E025C940E03580DE2010E39
:100A3000E66EF1EC06F0E5525CDD050EF3CFDBFF70
:100A4000060EF4CFDBFFE8D7D950070FE66E000E95
:100A5000DA20E66E13DCE552E552D950070FE66E58
:100A6000000EDA20E66ED950090FE66E000EDA208D
:100A7000E66E62DCE552E552E552E55200091BE103
:100A8000D950070FE66E000EDA20E66ED950090F36
:100A9000E66E000EDA20E66E73DCE552E552E552B2
:100AA000E5520000D950090FE66E000EDA20E66E1E
:100AB00093DCE552E55207D0010EF36E0D0EF3CF35
:100AC000DBFF01D000D03FD08180D950070FE66E08
:100AD000000EDA20E66E3EEC01F0E552E552D95008
:100AE000070FE66E000EDA20E66ED950090FE66EAB
:100AF000000EDA20E66E20DCE552E552E552E552C2
:100B000000091BE1D950070FE66E000EDA20E66EF1
:100B1000D950090FE66E000EDA20E66E31DCE552A0
:100B2000E552E552E5520000D950090FE66E000E7D
:100B3000DA20E66E51DCE552E5528190280EE66E31
:100B4000A8EC06F0E55220D5150EE15C02E2E16A60
:0C0B5000E552E16EE552E7CFD9FF12003C
:040B5C00060EF66E1D
:100B6000000EF76E000EF86E00010900F550856F5B
:100B70000900F550866F03E1856701D03DD009007B
:100B8000F550806F0900F550816F0900F550826FB4
:100B900009000900F550E96E0900F550EA6E0900F8
:100BA00009000900F550836F0900F550846F0900B2
:100BB0000900F6CF87F0F7CF88F0F8CF89F080C032
:100BC000F6FF81C0F7FF82C0F8FF0001835302E106
:100BD000845307E00900F550EE6E8307F8E28407BE
:100BE000F9D787C0F6FF88C0F7FF89C0F8FF00017A
:0A0BF0008507000E865BBFD71200D8
:060BFA00D9CFE6FFDACFBF
:100C0000E6FFE1CFD9FFE2CFDAFFFD0EDB50C96E80
:100C1000C6AE02D0FF0E24D00F0EC61408080FE097
:100C20000F0EC6140B080BE0C6889EA6FED7C75051
:100C3000040B03E1C750010B10E0000E11D00F0EA2
:100C4000C614080804E00F0EC6140B0809E1C7B06B
:100C5000FED70CEC07F0C5AC02D0FE0E01D0000EA2
:0C0C6000E552E5CFDAFFE7CFD9FF120024
:040C6C00D9CFE6FFF7
:100C7000DACFE6FFE1CFD9FFE2CFDAFFE652E65264
:100C8000D650DF6E010ED7CFDBFFDECF02F0DDCF17
:100C900003F002C0F3FF03C0F4FFE552E552E55252
:0A0CA000E5CFDAFFE7CFD9FF12001D
:060CAA00D9CFE6FFDACF0E
:100CB000E6FFE1CFD9FFE2CFDAFFE652E652FC0EC3
:100CC000DBCFDEFFDBCFDDFF010EDB50D76EDF5069
:100CD000D66EE552E552E552E5CFDAFFE7CFD9FF10
:020CE000120000
:0E0CE200D9CFE6FFDACFE6FFE1CFD9FFE2CFB0
:100CF000DAFFFD0EDB507F0BD56ED76AD66AF29411
:100D0000FD0EDBAE02D0F28A01D0F29AD58EE5520A
:0A0D1000E5CFDAFFE7CFD9FF1200AC
:060D1A00D9CFE6FFDACF9D
:100D2000E6FFE1CFD9FFE2CFDAFF3F0EC716C66A72
:100D3000C56AFD0EDB50C612FC0EDB50C71294864E
:100D40009488C68AE552E5CFDAFFE7CFD9FF1200D3
:100D5000FF0EE350056EEF0E01D0F30EE76EE72EA7
:100D6000AFEF06F00C0E046EE76AE72EB5EF06F063
:0E0D7000042EB4EF06F0052EADEF06F01200D3
:020D7E005F9F75
:100D80007BB7BBBD7DAF776FBEBDF6EDF5F9FADD84
:100D9000EEDEBD7DAF776F5F9F7BB7BBBDBEF5EE6F
:060DA000F6FAF9DEEDDDBC
:0A0DA600800EF36E00EE00F00F0E59
:100DB00001D81200EA6002D0EE6AFCD7F350E96075
:060DC0001200EE6AFCD7F0
:0A0DC6001EEE00F02EEE00F0F86AB9
:100DD000019CAEEC05F013EC07F08EEC02F0FBD7B3
:020DE0001200FF
:0E0DE200FF0EE350056E1B0E00D001D0200E58
:0E0DF000E76EE72EFED7052EFAD700D01200D0
:020DFE000F0ED6
:100E0000C614080804E00F0EC6140B0801E1C586DD
:080E1000C7A0FED7C950120073
:080E18001F0EC514FDE1C750D7
:060E2000040BFAE11200D0
:020E26001200B8
:00000001FF
